{
  "_format": "hh-sol-artifact-1",
  "contractName": "Student",
  "sourceName": "contracts/Students.sol",
  "abi": [
    {
      "inputs": [
        {
          "internalType": "string",
          "name": "_qrCode",
          "type": "string"
        }
      ],
      "name": "create",
      "outputs": [],
      "stateMutability": "nonpayable",
      "type": "function"
    },
    {
      "inputs": [],
      "name": "getStudents",
      "outputs": [
        {
          "components": [
            {
              "internalType": "string",
              "name": "qrCode",
              "type": "string"
            },
            {
              "internalType": "address",
              "name": "owner",
              "type": "address"
            }
          ],
          "internalType": "struct Student._Student[]",
          "name": "",
          "type": "tuple[]"
        }
      ],
      "stateMutability": "view",
      "type": "function"
    },
    {
      "inputs": [
        {
          "internalType": "uint256",
          "name": "",
          "type": "uint256"
        }
      ],
      "name": "students",
      "outputs": [
        {
          "internalType": "string",
          "name": "qrCode",
          "type": "string"
        },
        {
          "internalType": "address",
          "name": "owner",
          "type": "address"
        }
      ],
      "stateMutability": "view",
      "type": "function"
    }
  ],
  "bytecode": "0x608060405234801561001057600080fd5b5061088a806100206000396000f3fe608060405234801561001057600080fd5b50600436106100415760003560e01c806306ead22e14610046578063b6a46b3b14610077578063f1d064b314610093575b600080fd5b610060600480360381019061005b9190610525565b6100b1565b60405161006e9291906106c6565b60405180910390f35b610091600480360381019061008c91906104e0565b61018d565b005b61009b610297565b6040516100a891906106a4565b60405180910390f35b600081815481106100c157600080fd5b90600052602060002090600202016000915090508060000180546100e4906107cb565b80601f0160208091040260200160405190810160405280929190818152602001828054610110906107cb565b801561015d5780601f106101325761010080835404028352916020019161015d565b820191906000526020600020905b81548152906001019060200180831161014057829003601f168201915b5050505050908060010160009054906101000a900473ffffffffffffffffffffffffffffffffffffffff16905082565b6000604051806040016040528084848080601f016020809104026020016040519081016040528093929190818152602001838380828437600081840152601f19601f8201169050808301925050505050505081526020013373ffffffffffffffffffffffffffffffffffffffff168152509050600081908060018154018082558091505060019003906000526020600020906002020160009091909190915060008201518160000190805190602001906102489291906103de565b5060208201518160010160006101000a81548173ffffffffffffffffffffffffffffffffffffffff021916908373ffffffffffffffffffffffffffffffffffffffff1602179055505050505050565b60606000805480602002602001604051908101604052809291908181526020016000905b828210156103d557838290600052602060002090600202016040518060400160405290816000820180546102ee906107cb565b80601f016020809104026020016040519081016040528092919081815260200182805461031a906107cb565b80156103675780601f1061033c57610100808354040283529160200191610367565b820191906000526020600020905b81548152906001019060200180831161034a57829003601f168201915b505050505081526020016001820160009054906101000a900473ffffffffffffffffffffffffffffffffffffffff1673ffffffffffffffffffffffffffffffffffffffff1673ffffffffffffffffffffffffffffffffffffffff1681525050815260200190600101906102bb565b50505050905090565b8280546103ea906107cb565b90600052602060002090601f01602090048101928261040c5760008555610453565b82601f1061042557805160ff1916838001178555610453565b82800160010185558215610453579182015b82811115610452578251825591602001919060010190610437565b5b5090506104609190610464565b5090565b5b8082111561047d576000816000905550600101610465565b5090565b60008083601f84011261049357600080fd5b8235905067ffffffffffffffff8111156104ac57600080fd5b6020830191508360018202830111156104c457600080fd5b9250929050565b6000813590506104da8161083d565b92915050565b600080602083850312156104f357600080fd5b600083013567ffffffffffffffff81111561050d57600080fd5b61051985828601610481565b92509250509250929050565b60006020828403121561053757600080fd5b6000610545848285016104cb565b91505092915050565b600061055a8383610667565b905092915050565b61056b8161075c565b82525050565b61057a8161075c565b82525050565b600061058b82610706565b6105958185610729565b9350836020820285016105a7856106f6565b8060005b858110156105e357848403895281516105c4858261054e565b94506105cf8361071c565b925060208a019950506001810190506105ab565b50829750879550505050505092915050565b600061060082610711565b61060a818561073a565b935061061a818560208601610798565b6106238161082c565b840191505092915050565b600061063982610711565b610643818561074b565b9350610653818560208601610798565b61065c8161082c565b840191505092915050565b6000604083016000830151848203600086015261068482826105f5565b91505060208301516106996020860182610562565b508091505092915050565b600060208201905081810360008301526106be8184610580565b905092915050565b600060408201905081810360008301526106e0818561062e565b90506106ef6020830184610571565b9392505050565b6000819050602082019050919050565b600081519050919050565b600081519050919050565b6000602082019050919050565b600082825260208201905092915050565b600082825260208201905092915050565b600082825260208201905092915050565b60006107678261076e565b9050919050565b600073ffffffffffffffffffffffffffffffffffffffff82169050919050565b6000819050919050565b60005b838110156107b657808201518184015260208101905061079b565b838111156107c5576000848401525b50505050565b600060028204905060018216806107e357607f821691505b602082108114156107f7576107f66107fd565b5b50919050565b7f4e487b7100000000000000000000000000000000000000000000000000000000600052602260045260246000fd5b6000601f19601f8301169050919050565b6108468161078e565b811461085157600080fd5b5056fea264697066735822122002068e82426c7cd08209416844440c89bf3e441612487c98c0be7080cb86e96e64736f6c63430008040033",
  "linkReferences": {},
  "deployedLinkReferences": {}
}